:100000003CC100006BC1000069C1000067C1000075
:1000100065C1000063C1000061C100005FC1000054
:100020005DC100005BC1000059C1000057C1000064
:1000300055C1000053C1000051C100004FC1000074
:100040004DC100004BC1000049C1000047C1000084
:1000500045C1000043C1000041C1000023C50000AC
:100060003DC10000E8C30000BDC3000037C100006F
:1000700035C1000033C1000031C100002FC10000B4
:100080002DC100002BC1000029C1000027C10000C4
:1000900025C1000023C1000021C1000018C60000D6
:1000A0001DC100001BC1000019C1000017C10000E4
:1000B00015C1000013C1000011C100000FC10000F4
:1000C0000DC100000BC1000009C1000007C1000004
:1000D00005C1000003C1000001C10000FFC0000015
:1000E000FDC0000080048304720476047A04BA041C
:1000F00087048B049104950499049F04A304A70426
:10010000BA04AD04B104B504036EDB363D9A999987
:10011000993DABAAAA2A3E000000803F084AD73B7F
:100120003BCE016E84BCBFFDC12F3D6C74319ABDC6
:1001300056833DDA3D00C77F11BED9E4BB4C3E91EA
:100140006BAAAABE000000803F072C7AA5BA6CC536
:1001500090DA3B9365FC8BBC53F810FD3C569283C0
:100160004DBD879D3AB63DCBC9BF5BBE73DA0FC9A3
:100170003F0000002100240027002A002D0030004D
:10018000330001010000040107010A010000220000
:10019000250028002B002E00310034000201000051
:1001A000050108010B0105050505070508080808F4
:1001B000020202020A0A08080404040401010101FF
:1001C00001010101030303030303030304070707FA
:1001D0000C0C0C0C0C0C0C0C02020202060606069F
:1001E000060606060B0B0B0B0B0B0B0B010210206C
:1001F000200808102040102040800201020108045D
:1002000002010102040810204080804020100804F0
:100210000201800402018040201008040201080449
:10022000020101020408102040800102040810208D
:10023000408000000A0B02090C0D0E0807030401A0
:1002400000000000000000000000000000000000AE
:10025000000000000000000000000000000012117B
:10026000100000000000000000000000000000007E
:100270000000000000000000511B11241FBECFEF42
:10028000D1E2DEBFCDBF00E00CBF12E0A0E0B2E0E3
:10029000EAE3FEE300E00BBF02C007900D92A83B2B
:1002A000B107D9F725E0A8EBB2E001C01D92A43850
:1002B000B207E1F711E0CDE3D1E000E006C02197FD
:1002C0000109802FFE010E94A81BCC33D10780E0DA
:1002D0000807A9F70E94E80D0C941B1F91CEFC01A2
:1002E000918D828D981761F0828DDF01A80FB11D6D
:1002F0005D968C91928D9F5F9F73928F90E0089591
:100300008FEF9FEF0895FC01918D828D981731F04A
:10031000828DE80FF11D858D90E008958FEF9FEF9E
:100320000895FC01918D228D892F90E0805C9F4F74
:10033000821B91098F7399270895FC01848DDF0139
:10034000A80FB11DA35ABF4F2C91848D90E0019648
:100350008F739927848FA689B7892C93A089B18937
:100360008C9180648C93938D848D981306C0028841
:10037000F389E02D80818F7D80830895EF92FF9235
:100380000F931F93CF93DF93EC0181E0888F9B8DB8
:100390008C8D981305C0E889F989808185FD23C07B
:1003A000F62E0B8D10E00F5F1F4F0F731127E02EFD
:1003B0008C8DE8120BC00FB607FCFACFE889F989DB
:1003C000808185FFF5CFCE01B8DFF2CF8B8DFE01A6
:1003D000E80FF11DE35AFF4FF0820B8FEA89FB898A
:1003E0008081806207C0EE89FF896083E889F9898E
:1003F00080818064808381E090E0DF91CF911F91C4
:100400000F91FF90EF900895CF93DF93EC01888DCB
:100410008823C1F0EA89FB89808185FD05C0A88910
:10042000B9898C9186FD0EC00FB607FCF5CF80818F
:1004300085FFF2CFA889B9898C9185FFEDCFCE01D8
:100440007CDFE8CFDF91CF91089580E090E0892BA9
:1004500019F02CD6811125C080E090E0892B41F065
:1004600080E090E0892B21F00E94000081111CC0E7
:1004700080E090E0892B41F080E090E0892B21F032
:100480000E940000811113C080E090E0892BA1F050
:1004900080E090E0892B81F00E94000081110AC069
:1004A00008950E940000D8CF0E940000E1CF0E9472
:1004B0000000EACF0C94000008953FB7F8948091B3
:1004C000240390912503A0912603B091270326B51C
:1004D000A89B05C02F3F19F00196A11DB11D3FBF7C
:1004E000BA2FA92F982F8827820F911DA11DB11D0A
:1004F000BC01CD0142E0660F771F881F991F4A9506
:10050000D1F708958091280390E020912903821B60
:100510009109089585ED8093BC008091BC0084FD15
:10052000FCCF1092E90308954091DA02262F30E0C3
:10053000240F311D21323105DCF42091E9032430F0
:10054000C9F4FC0180E090E0861758F43091DA029B
:100550002191DC01A854BD4FA30FB11D2C9301962E
:10056000F3CF8091DA02680F6093DA0280E0089599
:1005700081E0089582E008950895E0912903809133
:100580002803E81730F4F0E0E150FD4F808190E05F
:1005900008958FEF9FEF089590912903809128038C
:1005A000981750F4E92FF0E0E150FD4F208130E042
:1005B0009F5F9093290302C02FEF3FEFC901089579
:1005C000CF92DF92EF92FF920F931F93CF93DF931F
:1005D0007C01262F972F8A018091EA03882391F0CE
:1005E000C62FD72F6E01C40ED51ECC15DD0569F0C0
:1005F0006991D701ED91FC910190F081E02DC70147
:100600001995F3CF642F822F8FDFC801DF91CF912F
:100610001F910F91FF90EF90DF90CF900895CF93AF
:10062000DF931F92CDB7DEB769832091EA032223BF
:10063000D1F020910D04203240F021E030E0FC01A7
:100640003383228380E090E014C08091EB03E82F95
:10065000F0E0E451FC4F998190838F5F8093EB032E
:1006600080930D0404C061E0CE0101965DDF81E05E
:1006700090E00F90DF91CF9108950E94DC1DEF92E2
:10068000FF920F931F93CF93DF931F92CDB7DEB7E7
:10069000142F022F91E09093EA0380930C041092A0
:1006A000EB0310920D048DE095E05983B8DFE12E45
:1006B0005981F52E8E2D811B801738F4F701619139
:1006C0007F018DE095E0ABDFF5CF0E943C0CE3E5C8
:1006D000F2E03197F1F70F90DF91CF911F910F91D9
:1006E000FF90EF900895EF92FF920F931F93CF9397
:1006F000DF931F92CDB7DEB7E82E8A0181E08093A9
:10070000EA03E0920C041092EB0310920D048DE0CA
:1007100095E0298384DF0E943C0CF82EE3E5F2E0AB
:100720003197F1F729818091E9038111FCCF2132C2
:1007300008F020E291E09093E9039093E8038FEFB3
:100740008093E7031092E603820F8093E503909372
:10075000C4039091C403EE0C9E299093C40380912E
:10076000C303813061F41092C3038091C40380936A
:10077000BB008091BC0083FDF8CF85EC01C085EE05
:100780008093BC008091E9038130E1F38091E6031E
:10079000821710F42091E603A5ECB3E04FEF52E08E
:1007A000FA018E2F841B821718F48D918193F9CF53
:1007B0001092290320932803909128038091290304
:1007C000981739F08DE095E0E7DEF80181938F010D
:1007D000F3CF8F2D0F90DF91CF911F910F91FF904D
:1007E000EF9008951F920F920FB60F9211240BB63F
:1007F0000F922F933F934F935F936F937F938F93BA
:100800009F93AF93BF93EF93FF9388E294E095DDBE
:10081000FF91EF91BF91AF919F918F917F916F91D8
:100820005F914F913F912F910F900BBE0F900FBE94
:100830000F901F9018951F920F920FB60F921124D0
:100840000BB60F922F938F939F93EF93FF93E091AB
:100850003804F09139048081E0913E04F0913F0426
:1008600082FD12C09081809141048F5F8F7320912F
:100870004204821751F0E0914104F0E0E85DFB4F43
:10088000958F8093410401C08081FF91EF919F91EA
:100890008F912F910F900BBE0F900FBE0F901F9056
:1008A0001895362F90E0FC01EE5CFD4F4491FC0161
:1008B000E451FE4F2491FC01EA55FE4F9491992397
:1008C00009F46BC0442309F455C050E0FA01319794
:1008D000E231F10508F04EC08827EE58FF4F8F4FE8
:1008E0000C94A81B809180008F7707C080918000B6
:1008F0008F7D03C080918000877F809380003AC005
:1009000084B58F7702C084B58F7D84BD33C080915C
:10091000B0008F7703C08091B0008F7D8093B000CE
:1009200029C0809190008F7707C0809190008F7DC3
:1009300003C080919000877F809390001BC08091BE
:10094000A0008F7707C08091A0008F7D03C08091A9
:10095000A000877F8093A0000DC0809120018F7739
:1009600007C0809120018F7D03C080912001877F87
:1009700080932001E92FF0E0EE0FFF1FE457FE4FB8
:10098000A591B4918FB7F894EC91311103C02095E3
:100990002E2301C02E2B2C938FBF0895CF93DF936E
:1009A00090E0FC01E451FE4F2491FC01EA55FE4F1A
:1009B0008491882361F190E0880F991FFC01EE5823
:1009C000FE4FC591D491FC01E457FE4FA591B4911F
:1009D000611109C09FB7F89488812095822388838C
:1009E000EC912E230BC0623061F49FB7F8943881EC
:1009F000822F809583238883EC912E2B2C939FBF8D
:100A000006C08FB7F894E8812E2B28838FBFDF9123
:100A1000CF9108958F929F92AF92BF92CF92DF9223
:100A2000EF92FF926B017C0148DD4B015C01C11428
:100A3000D104E104F104E9F040DDDC01CB018819C7
:100A40009909AA09BB09883E9340A105B10578F32D
:100A500021E0C21AD108E108F10888EE880E83E08F
:100A6000981EA11CB11CC114D104E104F10421F7AA
:100A7000DECFFF90EF90DF90CF90BF90AF909F9030
:100A80008F900895BC0180E090E0C4CF2FB7F89418
:100A900060912003709121038091220390912303A0
:100AA0002FBF08951F920F920FB60F9211242F930C
:100AB0003F938F939F93AF93BF9380912003909127
:100AC0002103A0912203B091230330911F0323E05F
:100AD000230F2D3720F40196A11DB11D05C026E876
:100AE000230F0296A11DB11D20931F0380932003A5
:100AF00090932103A0932203B093230380912403B6
:100B000090912503A0912603B09127030196A11D82
:100B1000B11D8093240390932503A0932603B093E3
:100B20002703BF91AF919F918F913F912F910F908C
:100B30000FBE0F901F9018950F931F93CF93DF93C5
:100B40001F92CDB7DEB71982E0912604F0912704F9
:100B5000309729F18C018381811109C0E09126042D
:100B6000F09127048381882329F08FEF19C0FAD2EE
:100B70008111F4CFA0912604B09127041B96ED912A
:100B8000FC911C9721E0AE014F5F5F4F6DE318961B
:100B90008C91199599819F70F801908301C081E82B
:100BA0000F90DF91CF911F910F9108950F931F9395
:100BB000CF93DF931F921F92CDB7DEB71A821982AF
:100BC0002091260430912704232B09F473C0082FA9
:100BD000CE010196B1DF81116FC08981A0912604F9
:100BE000B09127041B96ED91FC911C9721E0AE017A
:100BF0004E5F5F4F6DE38823B9F118968C9119957C
:100C0000182F811122C08A81807F8A83A0912604B7
:100C1000B0912704109771F01996ED91FC911A97F5
:100C200021E0AE014E5F5F4F6DE318968C911995F0
:100C3000182F01C011E8E0912604F09127040584E3
:100C4000F685E02D84E190E019950023C1F1A09193
:100C50002604B09127041B96ED91FC911C9721E08E
:100C6000AE014E5F5F4F6DE318968C91199581111F
:100C700025C00F709A81907F092B0A83A0912604CA
:100C8000B09127041996ED91FC911A9721E0AE01DD
:100C90004E5F5F4F6DE318968C911995182FE09178
:100CA0002604F09127040584F685E02D88E592E07E
:100CB000199505C011E803C01FEF01C0182F812F3F
:100CC0000F900F90DF91CF911F910F9108951F9278
:100CD0000F920FB60F9211240BB60F922F933F93E2
:100CE0004F935F936F937F938F939F93AF93BF9334
:100CF000EF93FF938091B900887F803609F49CC000
:100D000068F5883209F45BC090F4803109F454C06E
:100D100038F4882309F4F6C0883009F44DC0F5C0D2
:100D2000883109F44CC0803209F45DC0EEC08034D3
:100D300009F468C048F4803309F455C0883309F0D9
:100D4000E4C08093E703D8C0803509F44FC08835EC
:100D500009F45DC0883409F0D8C0D6C0883909F4D8
:100D6000C7C0A8F4883709F467C038F4883609F496
:100D700063C0803709F460C0C8C0883809F4B8C0BF
:100D8000803909F45FC0803809F0BFC05BC0803B88
:100D900009F486C038F4803A09F466C0883A09F448
:100DA0007FC0B3C0803C09F4A7C0883C09F4A4C04C
:100DB000883B09F48AC0A9C08091C40310C09091F7
:100DC000E6038091E503981770F5E091E60381E072
:100DD0008E0F8093E603F0E0EB53FC4F808180930D
:100DE000BB0085EC86C08093E7038EC0E091E603EC
:100DF00081E08E0F8093E6038091BB00F0E0EB531F
:100E0000FC4F80839091E6038091E5036EC0E091F2
:100E1000E60381E08E0F8093E6038091BB00F0E053
:100E2000EB53FC4F80838091E80381116DC081E01A
:100E30008093C30384EA61C083E08093E903109246
:100E4000FE02CFCF8091FE02803208F051C0E091C7
:100E5000FE0281E08E0F8093FE028091BB00F0E0E5
:100E6000E252FD4F8083BDCF85EC8093BC00109291
:100E7000E9038091FE02803230F4E091FE02F0E05E
:100E8000E252FD4F10826091FE0270E0E091DC02C0
:100E9000F091DD028EED92E019951092FE0235C0C0
:100EA00084E08093E9031092DB021092DA02E09171
:100EB000D802F091D90219958091DA02811105C00A
:100EC00081E08093DA021092B802E091DB0281E0C7
:100ED0008E0F8093DB02F0E0E854FD4F8081809319
:100EE000BB009091DB028091DA02981708F479CF69
:100EF00085E88093BC0009C085EC8093BC0010920B
:100F0000E90303C01092E70305DBFF91EF91BF9166
:100F1000AF919F918F917F916F915F914F913F9191
:100F20002F910F900BBE0F900FBE0F901F90189532
:100F3000CF92DF92EF92FF920F931F938B019C0150
:100F400035952795179507955FEDC52E59E5D52E53
:100F500057E3E52E5FE5F52EC01AD10AE20AF30A3F
:100F600020E030E040E05FE30E94451EA7019601CB
:100F70000E94451EA70196010E94451E9B01AC01DF
:100F800060E070E080EC9FE30E94B01B9B01AC012D
:100F9000C701B6010E94451E1F910F91FF90EF906F
:100FA000DF90CF9008950F931F93CF93DF93CAE103
:100FB000D4E00AE213E0F8012081318142815381BB
:100FC000688179818A819B810E94B01B6093420372
:100FD000709343038093440390934503F801248165
:100FE0003581468157816C817D818E819F810E94F0
:100FF000B01B60934603709347038093480390931C
:101000004903F801208531854285538568857985B6
:101010008A859B850E94B01B60934A0370934B03A3
:1010200080934C0390934D03CEE0D4E006E313E0AD
:10103000F8012081318142815381688179818A81DF
:101040009B810E94B01B60934E0370934F0380936B
:10105000500390935103F8012481358146815781D3
:101060006C817D818E819F810E94B01B60935203B1
:10107000709353038093540390935503F801208594
:10108000318542855385688579858A859B850E944F
:10109000B01B60935603709357038093580390934B
:1010A0005903DF91CF911F910F91089588E294E049
:1010B00038D921E0892B09F420E0822F0895CF92BE
:1010C000DF92EF92FF920F931F93CF93DF936C0108
:1010D0007A018B01C0E0D0E0CE15DF0589F0D801A0
:1010E0006D918D01D601ED91FC910190F081E02D83
:1010F000C6011995892B11F47E0102C02196ECCF0F
:10110000C701DF91CF911F910F91FF90EF90DF907A
:10111000CF900895E8E2F4E0A089B18982E08C9351
:10112000A485B5851C92A685B78580E18C93108E29
:10113000A489B58986E08C93A289B3898C9180615A
:101140008C93A289B3898C9188608C93A289B3898E
:101150008C9180688C930288F389E02D80818F7D4B
:1011600080830895CF93DF931F92CDB7DEB71982A6
:10117000A0912604B0912704109739F11B96ED91A8
:10118000FC911C9721E0AE014F5F5F4F67E018961E
:101190008C91199581111BC01982A0912604B091E0
:1011A00027041996ED91FC911A9721E0AE014F5F4B
:1011B0005F4F67E018968C911995811109C0E091F5
:1011C0002604F0912704138203C081E801C08FEF49
:1011D0000F90DF91CF910895CF92DF92EF92FF921F
:1011E0000F931F93CF93DF93CDB7DEB727970FB63B
:1011F000F894DEBF0FBECDBF1982E0912604F091B6
:101200002704309709F46EC08381811108C0E091F2
:101210002604F09127048381882321F063C0A2DF94
:101220008111F5CFA0912604B09127041B96ED9172
:10123000FC911C9721E0AE014F5F5F4F6BE3189666
:101240008C911995082F898181FF4AC01F821982CC
:101250008091260490912704892B09F43DC0CE018A
:1012600001966ADC882311F01FEF30C0898181115B
:1012700028C0A0912604B09127041B96ED91FC9103
:101280001C9721E0AE01495F5F4F6BE318968C918C
:101290001995182F81111AC08F818D7F8F83A0918E
:1012A0002604B09127041996ED91FC911A9721E03C
:1012B000AE01495F5F4F6BE318968C911995182F1B
:1012C00005C080E073DC8111CFCFD3CF8981882323
:1012D00029F06CDC810F03C081E801C0812F080F69
:1012E000002311F00FEF82C0CE0101967C0186E051
:1012F000F70111928A95E9F7E0912604F09127040D
:10130000309781F38381811108C0E0912604F09128
:1013100027048381882321F0E5CF24DF8111F5CFD5
:10132000A0912604B09127041B96ED91FC911C9787
:1013300026E0A70164E118968C9119956A81062E22
:10134000000C770B762F66279981692B2C81022E52
:10135000000C330B322F22279B816901C92A2E8171
:10136000022E000C330B322F22279D817901E92AAE
:101370008111B8CF072E000C880B990B0E94E61D37
:1013800020E030E040E85DE30E94451E60934105A7
:10139000709342058093430590934405B601DD0C9C
:1013A000880B990B0E94E61D20E030E040E85DE3E9
:1013B0000E94451E6093450570934605809347053E
:1013C00090934805B701FF0C880B990B0E94E61D0E
:1013D00020E030E040E85DE30E94451E609349054F
:1013E00070934A0580934B0590934C05802F279668
:1013F0000FB6F894DEBF0FBECDBFDF91CF911F9126
:101400000F91FF90EF90DF90CF900895CF92DF92F1
:10141000EF92FF920F931F93CF93DF93CDB7DEB779
:1014200027970FB6F894DEBF0FBECDBF1982E091AB
:101430002604F0912704309709F46EC0838181114E
:1014400008C0E0912604F09127048381882321F0CD
:1014500063C088DE8111F5CFA0912604B0912704E6
:101460001B96ED91FC911C9721E0AE014F5F5F4F01
:101470006BE318968C911995082F898180FF4AC0DB
:101480001F8219828091260490912704892B09F4E8
:101490003DC0CE01019650DB882311F01FEF30C014
:1014A0008981811128C0A0912604B09127041B9640
:1014B000ED91FC911C9721E0AE01495F5F4F6BE31A
:1014C00018968C911995182F81111AC08F818E7FD3
:1014D0008F83A0912604B09127041996ED91FC9179
:1014E0001A9721E0AE01495F5F4F6BE318968C912C
:1014F0001995182F05C080E059DB8111CFCFD3CFCC
:101500008981882329F052DB810F03C081E801C063
:10151000812F080F002311F00FEF82C0CE0101963A
:101520007C0186E0F70111928A95E9F7E0912604A3
:10153000F0912704309781F38381811108C0E091F5
:101540002604F09127048381882321F0E5CF0ADE69
:101550008111F5CFA0912604B09127041B96ED913F
:10156000FC911C9726E0A70168E018968C911995CC
:101570006A81062E000C770B762F66279981692BDE
:101580002C81022E000C330B322F22279B81690104
:10159000C92A2E81022E000C330B322F22279D8167
:1015A0007901E92A8111B8CF072E000C880B990B1D
:1015B0000E94E61D20E030E048EC52E40E948E1CC0
:1015C0006093290570932A0580932B0590932C0531
:1015D000B601DD0C880B990B0E94E61D20E030E07F
:1015E00048EC52E40E948E1C60932D0570932E05EA
:1015F00080932F0590933005B701FF0C880B990B52
:101600000E94E61D20E030E048EC52E40E948E1C6F
:1016100060933105709332058093330590933405C0
:10162000802F27960FB6F894DEBF0FBECDBFDF9197
:10163000CF911F910F91FF90EF90DF90CF90089581
:1016400080911905811101C0E1DE809129059091F9
:101650002A05A0912B05B0912C0580931A04909334
:101660001B04A0931C04B0931D04809119058111E3
:1016700001C0CCDE80912D0590912E05A0912F0503
:10168000B091300580931E0490931F04A093200412
:10169000B093210480911905811101C0B7DE8091BA
:1016A000310590913205A0913305B09134058093B6
:1016B000220490932304A0932404B09325048091E2
:1016C0001905811101C088DD809141059091420585
:1016D000A0914305B091440580930E0490930F04AC
:1016E000A0931004B093110480911905811101C0D9
:1016F00073DD8091450590914605A0914705B09115
:1017000048058093120490931304A0931404B0939B
:10171000150480911905811101C05EDD8091490594
:1017200090914A05A0914B05B0914C058093160409
:1017300090931704A0931804B09319040895EF929E
:10174000FF920F931F93CF93DF9300D000D0CDB7BC
:10175000DEB78E010F5F1F4F86E0F80111928A9568
:10176000E9F7E0912604F0912704309709F476C058
:101770008381811108C0E0912604F09127048381C0
:10178000882321F06BC0EEDC8111F5CFA0912604F7
:10179000B09127041B96ED91FC911C9726E0A801BF
:1017A0006EE018968C9119956A81062E000C770BC5
:1017B000762F66279981692B2C81022E000C330B22
:1017C000322F22279B817901E92A2E81022E000CDB
:1017D000330B322F22279D818901092B81113EC0B5
:1017E000072E000C880B990B0E94E61D20E030E0CC
:1017F00040E85DE30E94451E609335057093360511
:101800008093370590933805B701FF0C880B990B2F
:101810000E94E61D20E030E040E85DE30E94451EA6
:101820006093390570933A0580933B0590933C058E
:10183000B801110F880B990B0E94E61D20E030E0E3
:1018400040E85DE30E94451E60933D0570933E05B0
:1018500080933F059093400580E001C08FEF26966E
:101860000FB6F894DEBF0FBECDBFDF91CF911F91B1
:101870000F91FF90EF90089520910D0490910C042A
:10188000213208F04AC08091E9038111FCCF32E097
:101890003093E90331E03093E8033FEF3093E703FF
:1018A0001092E6032093E503ACEEB3E045EC53E081
:1018B000FA013E2F341B321718F43D913193F9CFC2
:1018C0001092C4032091C403990F922B9093C403E8
:1018D0009091C303913061F41092C3039091C403BB
:1018E0009093BB009091BC0093FDF8CF95EC01C0A4
:1018F00095EE9093BC009091E9039230E1F39091C2
:10190000E7039F3F79F08091E703803241F08091B7
:10191000E703803331F084E005C081E003C082E05A
:1019200001C083E01092EB0310920D041092EA03C1
:1019300008956115710579F0FB0101900020E9F728
:101940003197AF01461B570BDC01ED91FC910280F2
:10195000F381E02D199480E090E00895CF93DF9318
:10196000BC0188E294E0E5DFEC016FE372E088E21D
:1019700094E0DFDF8C0F9D1FDF91CF9108954F9290
:101980005F926F927F92EF92FF920F931F93CF938C
:10199000DF93CDB7DEB7A1970FB6F894DEBF0FBEC9
:1019A000CDBF7C01FA01CB0119A2223008F42AE054
:1019B0008E010F5D1F4F422E512C612C712CBF01E7
:1019C000A30192010E94F91EF901CA0101501109F7
:1019D0006A3014F4605D01C0695CD8016C93232BFC
:1019E000242B252B61F7B801C701A3DFA1960FB601
:1019F000F894DEBF0FBECDBFDF91CF911F910F9145
:101A0000FF90EF907F906F905F904F9008954F926E
:101A10005F926F927F928F929F92AF92BF92CF927E
:101A2000DF92EF92FF926B017C01B42E9B01AC011F
:101A30000E94C31D882319F06AEA72E027C02601BC
:101A40003701E89477F82FEF3FEF4FE75FE7C301E7
:101A5000B2010E94C31D81110DC02FEF3FEF4FE770
:101A60005FE7C301B2010E94E01D18161CF46EEA84
:101A700072E00CC02FEF3FEF4FE75FE4C701B60104
:101A80000E94731D18168CF462EB72E088E294E0F9
:101A9000FF90EF90DF90CF90BF90AF909F908F908E
:101AA0007F906F905F904F9044CF2FEF3FEF4FE7C5
:101AB0005FECC701B6010E94E01D87FDE5CF20E085
:101AC00030E0A901C701B6010E94E01D87FF11C0E7
:101AD000E0912804F09129040190F081E02D6DE25D
:101AE00088E294E019954C01F7FAF094F7F8F09435
:101AF00002C0812C912CA12C60E070E080E09FE37B
:101B0000AB1441F020E030E040E251E40E948E1C32
:101B1000A394F6CF9B01AC01C701B6010E94B11B93
:101B20002B013C010E94F61C6B017C010E94E41D0C
:101B30009B01AC01C301B2010E94B01B2B013C010F
:101B40002AE0B701A60188E294E019DF7C01E80CE5
:101B5000F91CBB2039F066EB72E088E294E0E9DE24
:101B6000E80EF91EDB2CDD2029F120E030E040E218
:101B700051E4C301B2010E94451E2B013C010E94A9
:101B8000F61C4B01A12CB12C2AE0B501A40188E27E
:101B900094E0F5DEE80EF91EC501B4010E94E41DD3
:101BA0009B01AC01C301B2010E94B01B2B013C019F
:101BB000DA94D9CFC701FF90EF90DF90CF90BF901C
:101BC000AF909F908F907F906F905F904F9008950F
:101BD000CF93DF93CDB7DEB7CD58D1090FB6F894C8
:101BE000DEBF0FBECDBF789484B5826084BD84B55E
:101BF000816084BD85B5826085BD85B5816085BD08
:101C000080916E00816080936E00109281008091BF
:101C10008100826080938100809181008160809347
:101C20008100809180008160809380008091B1006C
:101C300084608093B1008091B00081608093B00097
:101C400080919100826080939100809191008160E9
:101C500080939100809190008160809390008091AA
:101C6000A10082608093A1008091A1008160809397
:101C7000A1008091A00081608093A000809121014B
:101C800082608093210180912101816080932101F4
:101C90008091200181608093200180917A0084608E
:101CA00080937A0080917A00826080937A0080919C
:101CB0007A00816080937A0080917A0080688093B6
:101CC0007A001092C1001092090510920A05109234
:101CD0000B0510920C051092C7041092C8041092C4
:101CE000C9041092CA0460ED77E080E090E00E94A1
:101CF0000A0588E294E090930805809307050ADAC4
:101D00000E9446056093C7047093C8048093C90479
:101D10009093CA0460E372E08091070590910805F2
:101D200008DE6AE070E080E090E00E940A0511E0C1
:101D30001093DB04EFD9109229031092280310921C
:101D4000EB0310920D041092E9031093E803109234
:101D5000C30361E084E10E94510461E085E10E94D7
:101D600051048091B9008E7F8093B9008091B900B1
:101D70008D7F8093B90088E48093B80085E48093D8
:101D8000BC008CE08093B80062E080E00E94CE044A
:101D900061E084E00E94CE0460E084E00E9451048F
:101DA0006CE271E080E090E00E940A0561E084E06E
:101DB0000E94510468E572E080E090E00E940A050C
:101DC00083E793E090932605809325058FE393E0C6
:101DD000909324058093230582E495E09093280551
:101DE0008093270588E280932205198E1D8619822B
:101DF0001A828AE195E0909327048093260421E0DB
:101E0000AE01435F5F4F67E088E20E943F03A0910D
:101E10002604B09127046E0109E1C00ED11C1B9667
:101E2000ED91FC911C9721E0A60160E018968C9141
:101E30001995A0912604B0912704898D8C931B9647
:101E4000ED91FC911C9721E0A60161E018968C9120
:101E50001995A0912604B0912704898D14968C932E
:101E600014971B96ED91FC911C9721E0A60162E06E
:101E700018968C911995A0912604B0912704898D0C
:101E800015968C9315971B96ED91FC911C9721E06C
:101E9000A60163E018968C911995A0912604B09143
:101EA0002704898D16968C9316971B96ED91FC91BD
:101EB0001C9721E0A60166E018968C911995A091D7
:101EC0002604B0912704898D17968C9317971B963B
:101ED000ED91FC911C9722E0AE014F5F5F4F64E0F3
:101EE00018968C911995A0912604B09127048A81A7
:101EF00090E0982F88272981822B12969C938E93AD
:101F000011971B96ED91FC911C9721E0A60167E0CB
:101F100018968C911995E0912604F0912704898DEB
:101F2000838362E370E080E090E00E940A051D86F2
:101F300019828091260490912704892BC1F1CE014A
:101F400001960E949C0581112EC08981811126C0B5
:101F5000A0912604B09127041B96ED91FC911C974B
:101F600021E0AE01435F5F4F6BE318968C911995AA
:101F7000811119C08D8580688D87A0912604B0914C
:101F800027041996ED91FC911A9721E0AE01435F69
:101F90005F4F6BE318968C91199505C080E00E9405
:101FA000D6058823A9F2898181110E94D605109255
:101FB000190561E08DE00E94CE0487E00E94D605FD
:101FC0001D861E861F86188A198A1A8A1B8A1C8AF1
:101FD0001D8A1E8A1F8A188E19821A821B821C82F1
:101FE0001D821E821F82188619861A861B861C86F1
:101FF00068EE73E080E090E00E940A0521DB0E9419
:10200000D30710E063E070E080E090E00E940A05F2
:1020100017DBEEE0F4E09E01235F3F4F8AE194E09E
:10202000AE014F5F5F4F7A01419151916191719182
:10203000D9014D935D936D937D939D01DC014D918D
:102040005D916D917D91CD01D7014D935D936D9320
:102050007D937D01B4E0EA31FB0731F71F5F103853
:1020600089F6FE013D967F0126E3822E23E0922E23
:102070008E010F5F1F4F58010AE213E0D7016D91E7
:102080007D918D919D917D0120E030E040E05CE309
:102090000E94451EF40161937193819391934F01C6
:1020A000D5016D917D918D919D915D0120E030E094
:1020B00040E05CE30E94451EF801619371938193B7
:1020C00091938F01EC14FD04C9F610928A0382E407
:1020D00092E044DC60ED77E080E090E00E940A0549
:1020E000D12C80911905811101C029DB8091350522
:1020F00090913605A0913705B091380580937E0305
:1021000090937F03A0938003B0938103809119057E
:10211000811101C014DB8091390590913A05A0919D
:102120003B05B0913C058093820390938303A09379
:102130008403B093850380911905811101C0FFDAF2
:1021400080913D0590913E05A0913F05B0914005DD
:102150008093860390938703A0938803B0938903A9
:1021600006E613E082E7E82E83E0F82E9EE7A92E2C
:1021700093E0B92ED1101AC0D5014D905D906D90AD
:102180007C90F701408251826282738220E030E0CD
:10219000A901C301B2010E94E01D882349F1D801C1
:1021A0004D925D926D927C92139722C0F501408012
:1021B000518062807380D7012D913D914D915C914A
:1021C000C301B2010E94731D181614F4F7010CC06C
:1021D000D8012D913D914D915C91C301B2010E94B6
:1021E000E01D87FF05C0F801408251826282738240
:1021F0000C5F1F4FF4E0EF0EF11C24E0A20EB11CA7
:1022000033E00237130709F0B5CF69E170E080E0F1
:1022100090E00E940A05D39440E8D41262CF209146
:1022200066033091670340916803509169036091A0
:1022300072037091730380917403909175030E94EF
:10224000B11B20E030E040E05FE30E94451E609358
:102250005A0370935B0380935C0390935D0320911A
:102260006A0330916B0340916C0350916D03609150
:1022700076037091770380917803909179030E949F
:10228000B11B20E030E040E05FE30E94451E609318
:102290005E0370935F0380936003909361032091CA
:1022A0006E0330916F034091700350917103609100
:1022B0007A0370917B0380917C0390917D030E944F
:1022C000B11B20E030E040E05FE30E94451E6093D8
:1022D000620370936303809364039093650363E0E8
:1022E00070E080E090E00E940A058091190581115C
:1022F00001C025DA20915A0330915B0340915C03C1
:1023000050915D03609135057091360580913705D8
:10231000909138050E94B01B60938B0370938C03DF
:1023200080938D0390938E0380911905811101C0D4
:1023300006DA20915E0330915F0340916003509173
:1023400061036091390570913A0580913B05909148
:102350003C050E94B01B60938F03709390038093A1
:1023600091039093920380911905811101C0E7D9DF
:10237000209162033091630340916403509165039F
:1023800060913D0570913E0580913F05909140051B
:102390000E94B01B60939303709394038093950302
:1023A0009093960381E080938A0368EB7BE080E062
:1023B00090E00E940A058FE692E0D0DA8BE892E086
:1023C000CDDA63E070E080E090E00E940A05609161
:1023D00042037091430380914403909145032091FF
:1023E0004603309147034091480350914903409080
:1023F0004A0350904B0360904C0370904D038090C3
:102400004E0390904F03A0905003B09051038A8EDA
:102410009B8EAC8EBD8EC0905203D0905303E09043
:102420005403F09055038090560390905703A0906A
:102430005803B09059038E8E9F8EA8A2B9A20E9415
:10244000B11B4B015C0123EC35EF4CE151E4C301BE
:10245000B2010E94B01B9B01AC01C501B4010E94F6
:10246000B11B4B015C01A70196016A8D7B8D8C8DA0
:102470009D8D0E94B11B2E8D3F8D48A159A10E94B8
:10248000B11B9B01AC01C501B4010E94B11B20919D
:102490008A03222361F020E030E040E85FE30E94FD
:1024A000E01D181624F061E08DE00E9451040E94A6
:1024B00046050091BF031091C0032091C1033091E4
:1024C000C203DC01CB01801B910BA20BB30B0A975B
:1024D000A105B10510F40C94FB1AB2D80E94D307E1
:1024E00080911905811101C02AD920918B03309167
:1024F0008C0340918D0350918E036091350570914E
:10250000360580913705909138050E94B01B609385
:10251000B3037093B4038093B5039093B603809193
:102520001905811101C00BD920918F0330919003BF
:1025300040919103509192036091390570913A0551
:1025400080913B0590913C050E94B01B6093B703BE
:102550007093B8038093B9039093BA0380911905DF
:10256000811101C0ECD820919303309194034091E4
:1025700095035091960360913D0570913E058091C1
:102580003F05909140050E94B01B6093BB03709380
:10259000BC038093BD039093BE03E090BB03F09017
:1025A000BC030091BD031091BE03EA8EFB8E0C8F1D
:1025B0001D8F8090B7039090B803A090B903B0909E
:1025C000BA038E8E9F8EA8A2B9A2E090B303F090BA
:1025D000B4030091B5031091B603EAA2FBA20CA3C9
:1025E0001DA36091560370915703809158039091F9
:1025F000590325E33AEF4EE85CE30E94451EC258BA
:10260000DF4F688379838A839B83CE57D040609164
:10261000520370915303809154039091550325E325
:102620003AEF4EE85CE30E94451ECE57DF4F6883C9
:1026300079838A839B83C258D04060914E03709106
:102640004F03809150039091510325E33AEF4EE8F8
:102650005CE30E94451ECA57DF4F688379838A83F3
:102660009B83C658D04080904A0390904B03A09023
:102670004C03B0904D038AAE9BAEACAEBDAEE090C5
:102680004603F090470300914803109149032296B6
:10269000ECAEFDAE0EAF1FAF22978090420390903C
:1026A0004303A0904403B090450326968CAE9DAEA4
:1026B000AEAEBFAE2697E0900002F090010200910E
:1026C0000202109103022A96ECAEFDAE0EAF1FAFD0
:1026D0002A978090040290900502A0900602B09084
:1026E00007028AA69BA6ACA6BDA6E0900802F090C1
:1026F000090200910A0210910B02EEA6FFA608AB98
:1027000019AB80900C0290900D02A0900E02B09038
:102710000F028AAA9BAAACAABDAA2A962CAD3DADEF
:102720004EAD5FAD2A97CA01B9010E94451EC6573A
:10273000DF4F688379838A839B83CA58D0402AA558
:102740003BA54CA55DA52A966CAD7DAD8EAD9FAD2C
:102750002A970E94451E66966CAF7DAF8EAF9FAFE5
:102760006697A80197012A966CAD7DAD8EAD9FADA1
:102770002A970E94451E6EA37FA388A799A7A5014B
:1027800094012A966CAD7DAD8EAD9FAD2A970E94C7
:10279000451E6A966CAF7DAF8EAF9FAF6A972AA534
:1027A0003BA54CA55DA5CA01B9010E94451EA69690
:1027B0006CAF7DAF8EAF9FAFA697A80197016AA5BA
:1027C0007BA58CA59DA50E94451E6E966CAF7DAF26
:1027D0008EAF9FAF6E97A50194016AA57BA58CA5CE
:1027E0009DA50E94451EAA966CAF7DAF8EAF9FAF90
:1027F000AA97A8019701C801B7010E94451E2E960D
:102800006CAF7DAF8EAF9FAF2E97A5019401C8012D
:10281000B7010E94451EAE966CAF7DAF8EAF9FAFE5
:10282000AE97A5019401C501B4010E94451E4B015C
:102830005C0120E030E0A90126966CAD7DAD8EAD47
:102840009FAD26970E94E01D811119C020E030E065
:10285000A90122966CAD7DAD8EAD9FAD22970E94F1
:10286000E01D81110CC020E030E0A9016AAD7BAD14
:102870008CAD9DAD0E94E01D882309F45AC02696B8
:102880002CAD3DAD4EAD5FAD2697CA01B9010E949A
:10289000451E6B017C0122962CAD3DAD4EAD5FAD6A
:1028A0002297CA01B9010E94451E9B01AC01C701D4
:1028B000B60157D76B017C012AAD3BAD4CAD5DAD88
:1028C000CA01B9010E94451E9B01AC01C701B601B6
:1028D00048D70E9498076B017C019B01AC012696AA
:1028E0006CAD7DAD8EAD9FAD26970E94451E2696A0
:1028F0006CAF7DAF8EAF9FAF2697A7019601229652
:102900006CAD7DAD8EAD9FAD22970E94451E229687
:102910006CAF7DAF8EAF9FAF2297A70196016AADD6
:102920007BAD8CAD9DAD0E94451E6AAF7BAF8CAF79
:102930009DAF20E030E0A9016AA17BA18CA19DA1FF
:102940000E94E01D882309F466C020E030E0A90160
:102950006E8D7F8D88A199A10E94E01D882309F4C6
:102960005AC020E030E0A9016A8D7B8D8C8D9D8D51
:102970000E94E01D882309F44EC02AA13BA14CA16E
:102980005DA1CA01B9010E94451E6B017C012E8D1B
:102990003F8D48A159A1CA01B9010E94451E9B0162
:1029A000AC01C701B601DDD66B017C012A8D3B8DE0
:1029B0004C8D5D8DCA01B9010E94451E9B01AC0181
:1029C000C701B601CED60E9498076B017C019B011E
:1029D000AC016AA17BA18CA19DA10E94451E6AA3A6
:1029E0007BA38CA39DA3A70196016E8D7F8D88A1EB
:1029F00099A10E94451E6E8F7F8F88A399A3A7017E
:102A000096016A8D7B8D8C8D9D8D0E94451E6A8FEF
:102A10007B8F8C8F9D8F2AA13BA14CA15DA1CA0108
:102A2000B9019FD66EAB7FAB88AF99AF2E962CAD18
:102A30003DAD4EAD5FAD2E9760E070E080E09FE36E
:102A40008FD6A50194018CD6E2966CAF7DAF8EAF88
:102A50009FAFE2972E8D3F8D48A159A1CA01B901C0
:102A600080D662966CAF7DAF8EAF9FAF62976A964D
:102A70002CAD3DAD4EAD5FAD6A976E966CAD7DAD44
:102A80008EAD9FAD6E976CD6E6966CAF7DAF8EAF78
:102A90009FAFE6972A8D3B8D4C8D5D8DCA01B901A4
:102AA00060D6A2966CAF7DAF8EAF9FAFA2972EA1DE
:102AB0003FA148A559A5AA966CAD7DAD8EAD9FAD41
:102AC000AA974FD6EA966CAF7DAF8EAF9FAFEA97CD
:102AD000E2962CAD3DAD4EAD5FADE2976EA97FA9FC
:102AE00088AD99AD0E94451E6B017C01E6962CAD28
:102AF0003DAD4EAD5FADE69762966CAD7DAD8EADF2
:102B00009FAD62970E94451E9B01AC01C701B601B3
:102B100028D66B017C01EA962CAD3DAD4EAD5FAD84
:102B2000EA97A2966CAD7DAD8EAD9FADA2970E9447
:102B3000451E9B01AC01C701B60113D62B013C0118
:102B4000A6962CAD3DAD4EAD5FADA69760E070E0B2
:102B500080E09FE305D6EE966CAF7DAF8EAF9FAF62
:102B6000EE976A962CAD3DAD4EAD5FAD6A976E9611
:102B70006CAD7DAD8EAD9FAD6E97F3D59B01AC0175
:102B80006EA97FA988AD99AD0E94451E6B017C019D
:102B9000A5019401EE966CAD7DAD8EAD9FADEE9727
:102BA000DFD59B01AC0162966CAD7DAD8EAD9FAD66
:102BB00062970E94451E9B01AC01C701B601D1D5A9
:102BC0006B017C0166962CAD3DAD4EAD5FAD669759
:102BD000AE966CAD7DAD8EAD9FADAE97C1D59B0170
:102BE000AC01A2966CAD7DAD8EAD9FADA2970E945B
:102BF000451E9B01AC01C701B601B3D56B017C0139
:102C0000A3019201C301B2010E94451E2B013C01A8
:102C1000A7019601C701B6010E94451E9B01AC01A8
:102C2000C301B2019ED56ED76B017C012EA13FA1DD
:102C300048A559A5AA966CAD7DAD8EAD9FADAA975E
:102C40008FD56EA37FA388A799A766962CAD3DADBF
:102C50004EAD5FAD6697AE966CAD7DAD8EAD9FAD62
:102C6000AE977FD52B013C012E962CAD3DAD4EADE0
:102C70005FAD2E97EE966CAD7DAD8EAD9FADEE97B0
:102C80006FD566966CAF7DAF8EAF9FAF66972EA166
:102C90003FA148A559A5CA01B90163D56A966CAF91
:102CA0007DAF8EAF9FAF6A97A3019201C301B201BE
:102CB00058D56E966CAF7DAF8EAF9FAF6E97A696D0
:102CC0002CAD3DAD4EAD5FADA697C657DF4F6881C9
:102CD00079818A819B81CA58D04042D52E962CADED
:102CE0003DAD4EAD5FAD2E973BD5A501940139D5D5
:102CF0002E966CAF7DAF8EAF9FAF2E97A70196013A
:102D0000C701B6012ED54B015C012EA13FA148A5FC
:102D100059A56EA97FA988AD99ADB7D76B017C0184
:102D2000A301920162966CAD7DAD8EAD9FAD6297B1
:102D3000ACD79B01AC01C701B60113D56B017C0177
:102D400066962CAD3DAD4EAD5FAD6697A2966CAD6F
:102D50007DAD8EAD9FADA29798D79B01AC01C70109
:102D6000B601FFD49B01AC01FCD46B017C01E2965F
:102D70002CAD3DAD4EAD5FADE297C501B40185D739
:102D80006EAB7FAB88AF99AF2EA13FA148A559A5E7
:102D9000C701B6017AD79B01AC016EA97FA988ADA6
:102DA00099ADDFD46EAB7FAB88AF99AFE6962CAD13
:102DB0003DAD4EAD5FADE697C501B40166D76EA3DC
:102DC0007FA388A799A7A3019201C701B6015DD788
:102DD0009B01AC016EA17FA188A599A5C2D4629682
:102DE0006CAF7DAF8EAF9FAF6297EA962CAD3DADD5
:102DF0004EAD5FADEA97C501B40147D74B015C0109
:102E000066962CAD3DAD4EAD5FAD6697C701B60180
:102E10003CD79B01AC01C501B401A3D46B017C017B
:102E200010929703109298031092990310929A03AC
:102E300010929B0310929C0310929D0310929E038C
:102E400010929F031092A0031092A1031092A2036C
:102E50002E962CAD3DAD4EAD5FAD2E9722966CAD4E
:102E60007DAD8EAD9FAD229710D74B015C016E9664
:102E70002CAD3DAD4EAD5FAD6E976AAD7BAD8CAD0B
:102E80009DAD03D79B01AC01C501B40169D44B01D1
:102E90005C01A70196016E8D7F8D88A199A1F5D661
:102EA0002B013C0162962CAD3DAD4EAD5FAD6297FE
:102EB0006A8D7B8D8C8D9D8DE8D69B01AC01C30105
:102EC000B2014ED49B01AC01C501B4014AD420E04B
:102ED00030E040E251E4D9D69B01AC01CA57DF4F44
:102EE000688179818A819B81C658D0403AD420E09C
:102EF00030E0A90136D46EA37FA388A799A76A966C
:102F00002CAD3DAD4EAD5FAD6A976AAD7BAD8CAD7E
:102F10009DADBBD64B015C012E962CAD3DAD4EADAB
:102F20005FAD2E9726966CAD7DAD8EAD9FAD26978D
:102F3000ACD69B01AC01C501B40112D44B015C01BC
:102F40002EA93FA948AD59AD6A8D7B8D8C8D9D8D85
:102F50009CD62B013C01A70196016AA17BA18CA103
:102F60009DA193D69B01AC01C301B201F9D39B0192
:102F7000AC01C501B401F5D320E030E040E251E4FA
:102F800084D69B01AC01CE57DF4F688179818A815D
:102F90009B81C258D040E5D320E030E0A901E1D3C5
:102FA0006A8F7B8F8C8F9D8F6E962CAD3DAD4EAD15
:102FB0005FAD6E9726966CAD7DAD8EAD9FAD2697BD
:102FC00064D66B017C016A962CAD3DAD4EAD5FAD14
:102FD0006A9722966CAD7DAD8EAD9FAD229755D68A
:102FE0009B01AC01C701B601BBD36B017C016296AA
:102FF0002CAD3DAD4EAD5FAD62976AA17BA18CA1BA
:103000009DA143D64B015C012EA93FA948AD59AD06
:103010006E8D7F8D88A199A138D69B01AC01C50129
:10302000B4019ED39B01AC01C701B6019AD320E045
:1030300030E040E251E429D69B01AC01C258DF4F99
:10304000688179818A819B81CE57D0408AD320E0E4
:1030500030E0A90186D34B015C016AA57BA58CA554
:103060009DA590582EA13FA148A559A50ED66B014C
:103070007C012A8D3B8D4C8D5D8D6EA57FA588A929
:1030800099A903D69B01AC01C701B60169D36B01B5
:103090007C01A50194016AA97BA98CA99DA9F5D5FC
:1030A0009B01AC01C701B6015BD32AE037ED43EACF
:1030B0005BE3EBD59B01AC012A966CAD7DAD8EAD8B
:1030C0009FAD2A974ED32B013C012EA13FA148A5CD
:1030D00059A5DBD56B017C01A50194016EA57FA5E7
:1030E00088A999A9D2D59B01AC01C701B60139D3F2
:1030F0006B017C012A8D3B8D4C8D5D8D6AA97BA96E
:103100008CA99DA9C2D59B01AC01C701B60128D3EA
:103110002AE037ED43EA5BE3B8D59B01AC016AA531
:103120007BA58CA59DA51DD36E8F7F8F88A399A3AA
:103130002A8D3B8D4C8D5D8DC301B201A6D56B01EF
:103140007C01A50194016AA57BA58CA59DA59DD5B3
:103150009B01AC01C701B60103D36B017C012EA119
:103160003FA148A559A56AA97BA98CA99DA98DD580
:103170009B01AC01C701B601F4D22AE037ED43EA66
:103180005BE383D59B01AC016EA57FA588A999A9B6
:10319000E8D26AA37BA38CA39DA3A5019401C301DC
:1031A000B20173D56B017C012A8D3B8D4C8D5D8DF9
:1031B0006AA57BA58CA59DA568D59B01AC01C7011F
:1031C000B601CFD26B017C012EA13FA148A559A524
:1031D0006EA57FA588A999A958D59B01AC01C70107
:1031E000B601BED22AE037ED43EA5BE34ED59B0140
:1031F000AC016AA97BA98CA99DA9B3D24B015C0142
:10320000A3019201C301B20140D56B017C012E8D57
:103210003F8D48A159A1CA01B90137D59B01AC0125
:10322000C701B6019ED26B017C012AA13BA14CA132
:103230005DA1CA01B90129D59B01AC01C701B60145
:1032400090D26B017C01A5019401C501B4011DD58B
:103250009B01AC01C701B60184D20E9498076B01A3
:103260007C019B01AC01C301B2010FD56093000248
:10327000709301028093020290930302A7019601CA
:103280006E8D7F8D88A199A100D560930402709303
:1032900005028093060290930702A70196016AA196
:1032A0007BA18CA19DA1F1D46093080270930902C7
:1032B00080930A0290930B02A7019601C501B40105
:1032C000E4D460930C0270930D0280930E029093ED
:1032D0000F026091000270910102809102029091B0
:1032E0000302409000025090010260900202709030
:1032F000030280900C0290900D02A0900E02B090FC
:103300000F02E0900C02F0900D0200910E0210915D
:103310000F02EE8EFF8E08A319A3C0900802D09072
:103320000902E0900A02F0900B0200910C02109149
:103330000D0220910E0230910F020AA31BA32CA3B1
:103340003DA3209100023091010240910202509170
:1033500003022A8F3B8F4C8F5D8F009104021091E6
:10336000050220910602309107020AA71BA72CA78D
:103370003DA79B01AC01F5D1A301920186D42B019D
:103380003C01A5019401C501B401EBD12E8D3F8D07
:1033900048A159A17AD49B01AC01C301B201E1D18A
:1033A00020E030E040E85FE3DBD14B015C01A701A6
:1033B0009601C701B601D5D12AA13BA14CA15DA1BF
:1033C00064D46B017C012A8D3B8D4C8D5D8DCA01CF
:1033D000B901C7D12AA53BA54CA55DA556D49B0133
:1033E000AC01C701B601BCD1A501940144D221EEC4
:1033F0003EE245E652E449D46093A7037093A803E4
:103400008093A9039093AA0360910402709105022E
:10341000809106029091070240900C0250900D029C
:1034200060900E0270900F02C0900002D0900102D6
:10343000E0900202F090030280900802909009024E
:10344000A0900A02B0900B029B01AC018AD1A301AB
:1034500092011BD42B013C01A7019601C701B601C3
:1034600080D1A501940111D49B01AC01C301B2012B
:1034700078D1DBD121EE3EE245E652E406D46093FA
:10348000AB037093AC038093AD039093AE03609154
:10349000000270910102809102029091030240901B
:1034A000000250900102609002027090030280902E
:1034B000040290900502A0900602B0900702E090EE
:1034C0000402F09005020091060210910702EE8EB0
:1034D000FF8E08A319A3C0900402D0900502E090CB
:1034E0000602F09007020091080210910902209153
:1034F0000A0230910B020AA31BA32CA33DA3209127
:1035000000023091010240910202509103022A8F81
:103510003B8F4C8F5D8F00910C0210910D0220911A
:103520000E0230910F020AA71BA72CA73DA79B01F3
:10353000AC0117D1A3019201A8D32B013C01A50135
:103540009401C501B4010DD12E8D3F8D48A159A123
:103550009CD39B01AC01C301B20103D120E030E058
:1035600040E85FE3FDD04B015C01A7019601C70174
:10357000B601F7D02AA13BA14CA15DA186D36B0176
:103580007C012A8D3B8D4C8D5D8DCA01B901E9D03E
:103590002AA53BA54CA55DA578D39B01AC01C7012D
:1035A000B601DED0A501940166D121EE3EE245E6EA
:1035B00052E46BD320E030E044EB52E4D2D023EC71
:1035C00035EF4CE151E4CCD028E431EE4AE150E44F
:1035D000C7D06093AF037093B0038093B10390930F
:1035E000B2030E9446056093BF037093C0038093AB
:1035F000C1039093C2030E9446050091A30310915A
:10360000A4032091A5033091A603DC01CB01801B0C
:10361000910BA20BB30B843F9105A105B105E8F115
:103620006091A7037091A8038091A9039091AA03C8
:1036300042E00E94070D68EA72E088E294E00E948E
:10364000990C6091AB037091AC038091AD039091A4
:10365000AE0342E00E94070D68EA72E088E294E05F
:103660000E94990C6091AF037091B0038091B103F7
:103670009091B20342E00E94070D6FE372E088E28E
:1036800094E00E94990C0E9446056093A3037093F6
:10369000A4038093A5039093A6030E9425020C9493
:1036A0005712E8E2F4E01382128288EE93E0A0E081
:1036B000B0E084839583A683B78324E132E031832D
:1036C000208325EC30E03587248724EC30E03787F1
:1036D000268720EC30E0318B208B21EC30E0338BDF
:1036E000228B22EC30E0358B248B26EC30E0378BBC
:1036F000268B118E128E138E148EE5ECF4E016825A
:1037000017821086118612861386148615861686F1
:103710001786108A118A128A138A148A158AEDE094
:10372000F5E01382128284839583A683B78384E2B3
:1037300092E0918380838DE097ECAAE1BFE38093D0
:10374000800590938105A0938205B0938305089529
:10375000EE0FFF1F881F8BBF0790F691E02D199485
:103760005058BB27AA270ED00AC3FBD230F000D393
:1037700020F031F49F3F11F41EF4F0C20EF4E095F6
:10378000E7FBE6C2E92F0CD380F3BA176207730791
:103790008407950718F071F49EF524C30EF4E095A4
:1037A0000B2EBA2FA02D0B01B90190010C01CA01FB
:1037B000A0011124FF27591B99F0593F50F4503EA6
:1037C00068F11A16F040A22F232F342F4427585F98
:1037D000F3CF469537952795A795F0405395C9F7B0
:1037E0007EF41F16BA0B620B730B840BBAF0915068
:1037F000A1F0FF0FBB1F661F771F881FC2F70EC007
:10380000BA0F621F731F841F48F4879577956795D9
:10381000B795F7959E3F08F0B3CF9395880F08F0C2
:103820009927EE0F9795879508959F939F77EEE3DD
:1038300089379E0720F4E8E0F1E044D109C002D1C5
:103840009058A2EA2AED3FE049EC5FE39BDF97D274
:103850000F9007FC9058089584D258F080E891E0CA
:1038600009F49EEF85D228F040E851E059F45EEF6C
:1038700009C074C2B7C2E92FE07892D268F3092E6A
:10388000052AC1F3261737074807590738F00E2EC7
:1038900007F8E02569F0E025E0640AC0EF6307F867
:1038A000009407FADB01B9019D01DC01CA01AD01F9
:1038B000EF9343D064D20AD05F91552331F02BEDC2
:1038C0003FE049E450FD49EC4CCF0895DF93DD27FC
:1038D000B92FBF7740E85FE31616170648075B0766
:1038E00010F4D92F04D19F938F937F936F9348D176
:1038F000ECE1F1E0C2D043D22F913F914F915F9123
:10390000D0D1DD2349F09058A2EA2AED3FE049ECFE
:103910005FE3D0785D2736DFDF9131C20CD02FC254
:1039200027D240F01ED230F021F45F3F19F010C2D0
:10393000511159C213C234D298F39923C9F35523B4
:10394000B1F3951B550BBB27AA2762177307840792
:1039500038F09F5F5F4F220F331F441FAA1FA9F348
:1039600033D00E2E3AF0E0E830D091505040E6953A
:10397000001CCAF729D0FE2F27D0660F771F881F9B
:10398000BB1F261737074807AB07B0E809F0BB0B8A
:10399000802DBF01FF2793585F4F2AF09E3F5105AE
:1039A00068F0D6C120C25F3FECF3983EDCF3869509
:1039B00077956795B795F7959F5FC9F7880F911D24
:1039C0009695879597F90895E1E0660F771F881F10
:1039D000BB1F621773078407BA0720F0621B730BC3
:1039E000840BBA0BEE1F88F7E0950895E1D188F0BB
:1039F0009F5790F0B92F9927B751A0F0D1F0660FDB
:103A0000771F881F991F1AF0BA95C9F712C0B130F5
:103A100081F0E8D1B1E00895E5C1672F782F8827BC
:103A2000B85F39F0B93FCCF3869577956795B39534
:103A3000D9F73EF490958095709561957F4F8F4FA3
:103A40009F4F0895DF93CF931F930F938B01EC014A
:103A5000E9E4F1E012D093D19801AE018B01EC01C1
:103A600060E070E080E89FE37BDE4CD09801AE011F
:103A70000F911F91CF91DF9114C1DF93CF931F93CB
:103A80000F93FF92EF92DF927B018C01689405C047
:103A9000DA2EEF0106D1FE01E894A591259135912A
:103AA00045915591AEF3EF016DDEFE019701A8013E
:103AB000DA9479F7DF90EF90FF900F911F91CF91FB
:103AC000DF9108959F938F937F936F93FF93EF936D
:103AD0009B01AC01DAD0EF91FF91CFDF2F913F91A5
:103AE0004F915F91D2C0ADD008F48FEF08959B0144
:103AF000AC0160E070E080E89FE310CF11F40EF4B9
:103B00002DC145C055D1D0F39923D9F3CEF39F579A
:103B1000550B87FF4AD00024A0E640EA9001805868
:103B20005695979528F4805C660F771F881F20F0C4
:103B300026173707480730F4621B730B840B2029C4
:103B400031294A2BA69517940794202531254A2719
:103B500058F7660F771F881F20F02617370748078A
:103B600030F4620B730B840B200D311D411DA095A9
:103B700081F7B901842F9158880F969587950895FC
:103B80009B01AC0182C05DD0880B990B08959F3FCB
:103B900031F0915020F4879577956795B795880F08
:103BA000911D9695879597F9089591505040660F0D
:103BB000771F881FD2F7089581E090E0F8943BC109
:103BC00040D008F481E00895E89409C097FB3EF4E2
:103BD00090958095709561957F4F8F4F9F4F99235A
:103BE000A9F0F92F96E9BB279395F69587957795D8
:103BF0006795B795F111F8CFFAF4BB0F11F460FF98
:103C00001BC06F5F7F4F8F4F9F4F16C0882311F0EF
:103C100096E911C0772321F09EE8872F762F05C003
:103C2000662371F096E8862F70E060E02AF09A959E
:103C3000660F771F881FDAF7880F9695879597F993
:103C40000895990F0008550FAA0BE0E8FEEF16162D
:103C50001706E807F907C0F012161306E407F50780
:103C600098F0621B730B840B950B39F40A2661F0F4
:103C7000232B242B252B21F408950A2609F4A14097
:103C8000A6958FEF811D811D08950BD078C069D056
:103C900028F06ED018F0952309F05AC05FC01124A7
:103CA000A2C07ED0A0F3959FD1F3950F50E0551F91
:103CB000629FF001729FBB27F00DB11D639FAA2781
:103CC000F00DB11DAA1F649F6627B00DA11D661FD0
:103CD000829F2227B00DA11D621F739FB00DA11DF1
:103CE000621F839FA00D611D221F749F3327A00DAB
:103CF000611D231F849F600D211D822F762F6A2F47
:103D000011249F5750408AF0E1F088234AF0EE0FCB
:103D1000FF1FBB1F661F771F881F91505040A9F7D8
:103D20009E3F510570F014C05EC05F3FECF3983EBB
:103D3000DCF3869577956795B795F795E7959F5F3F
:103D4000C1F7FE2B880F911D9695879597F90895D9
:103D500097F99F6780E870E060E008959FEF80EC3E
:103D6000089500240A9416161706180609060895E1
:103D700000240A9412161306140605060895092E47
:103D80000394000C11F4882352F0BB0F40F4BF2BB6
:103D900011F460FF04C06F5F7F4F8F4F9F4F0895F6
:103DA00057FD9058440F551F59F05F3F71F04795EC
:103DB000880F97FB991F61F09F3F79F087950895D1
:103DC000121613061406551FF2CF4695F1DF08C0F0
:103DD000161617061806991FF1CF8695710561050D
:103DE00008940895E894BB2766277727CB0197F9B5
:103DF0000895A1E21A2EAA1BBB1BFD010DC0AA1F2C
:103E0000BB1FEE1FFF1FA217B307E407F50720F043
:103E1000A21BB30BE40BF50B661F771F881F991FBE
:103E20001A9469F760957095809590959B01AC0107
:0A3E3000BD01CF010895F894FFCF03
:103E3A000000803F000000000000000000000000B9
:103E4A0000000000BE015F0891016F0183010402B6
:103E5A00000000000F03E0028202CC02BD02BC0295
:103E6A00564D4450565F317C315F564D4450560D85
:103E7A000A00576176652064657669636520696E14
:103E8A00206120666967757265206F6620656967BB
:103E9A00687420756E74696C20646F6E6521002DDC
:103EAA003E204D61672043616C6962726174696F7B
:103EBA006E20446F6E6521203C2D002D2D2D2D2D59
:103ECA002D2D2D2D2D2D2D2D2D2D2D2D2D2D2D2D18
:103EDA002D2D2D2D2D2D2D002C006E616E00696E5D
:083EEA0066006F7666002E00F1
:00000001FF
