:1000000019C1000046C1000044C1000042C1000007
:1000100040C100003EC100003CC100003AC10000E8
:1000200038C1000036C1000034C1000032C10000F8
:1000300030C100002EC100002CC100002AC1000008
:1000400028C1000026C1000024C1000022C1000018
:1000500020C100001EC100001CC10000CAC4000075
:1000600018C1000090C4000065C4000012C1000067
:1000700010C100000EC100000CC100000AC1000048
:1000800008C1000006C1000004C1000002C1000058
:1000900000C10000FEC00000FCC00000FAC000006B
:1000A000F8C00000F6C00000F4C00000F2C000007C
:1000B000F0C00000EEC00000ECC00000EAC000008C
:1000C000E8C00000E6C00000E4C00000E2C000009C
:1000D000E0C00000DEC00000DCC00000DAC00000AC
:1000E000D8C000009D01A0018F0193019701D701A5
:1000F000A401A801AE01B201B601BC01C001C40156
:10010000D701CA01CE01D201530758075D0767071F
:100110007107EA077B0783078B0795079F07A907E6
:10012000B807C207EA07CC07D607E007000021009E
:10013000240027002A002D003000330001010000B8
:10014000040107010A0100002200250028002B00FD
:100150002E003100340002010000050108010B01EE
:1001600005050505070508080808020202020A0A33
:100170000808040404040101010101010101030351
:10018000030303030303040707070C0C0C0C0C0CFC
:100190000C0C0202020206060606060606060B0BF9
:1001A0000B0B0B0B0B0B010210202008081020403A
:1001B000102040800201020108040201010204082B
:1001C00010204080804020100804020180040201B9
:1001D0008040201008040201080402010102040802
:1001E00010204080010204081020408000000A0B0B
:1001F00002090C0D0E0807030401000000000000B6
:1002000000000000000000000000000000000000EE
:1002100000000000000000001211100000000000AB
:1002200000000000000000000000000000000000CE
:100230000000430511241FBECFEFD1E2DEBFCDBFCA
:1002400000E00CBF12E0A0E0B2E0E0EDF4E100E07D
:100250000BBF02C007900D92A233B107D9F723E07C
:10026000A2E3B2E001C01D92AC32B207E1F711E0A7
:10027000CAE1D1E000E005C021970109802FFE010D
:10028000D8D6C931D10780E00807B1F73BD40C9428
:10029000660AB6CEE7E4F2E0A089B18982E08C93E9
:1002A000A485B5851C92A685B7858FEC8C93108E9E
:1002B000A489B58986E08C93A289B3898C918061E9
:1002C0008C93A289B3898C9188608C93A289B3891D
:1002D0008C9180688C930288F389E02D80818F7DDA
:1002E00080830895CF93C82FEFEEF1E04491E9EABF
:1002F000F1E02491E3E6F1E09491992309F46AC0D6
:10030000442309F454C050E0FA013197E231F10579
:1003100008F04DC08827EE58FF4F8F4F8AC6809156
:1003200080008F7707C0809180008F7D03C080910F
:100330008000877F809380003AC084B58F7702C0A9
:1003400084B58F7D84BD33C08091B0008F7703C0AA
:100350008091B0008F7D8093B00029C08091900083
:100360008F7707C0809190008F7D03C080919000AF
:10037000877F809390001BC08091A0008F7707C07B
:100380008091A0008F7D03C08091A000877F809323
:10039000A0000DC0309120013F7707C030912001AF
:1003A0003F7D03C030912001377F30932001E92F3A
:1003B000F0E0EE0FFF1FEA5BFE4FA591B4918FB7FF
:1003C000F894EC91C11103C020952E2301C02E2B6F
:1003D0002C938FBFCF910895CF92DF92EF92FF922F
:1003E0000F931F93CF93DF936C017A018B01C0E0D1
:1003F000D0E0CE15DF0589F0D8016D918D01D601D1
:10040000ED91FC910190F081E02DC6011995892BA9
:1004100011F47E0102C02196ECCFC701DF91CF918C
:100420001F910F91FF90EF90DF90CF900895FC0106
:10043000918D828D981761F0828DDF01A80FB11D1B
:100440005D968C91928D9F5F9F73928F90E008953F
:100450008FEF9FEF0895FC01918D828D981731F0F9
:10046000828DE80FF11D858D90E008958FEF9FEF4D
:100470000895FC01918D228D892F90E0805C9F4F23
:10048000821B91098F739927089587E492E0F1DF29
:1004900021E0892B09F420E0822F0895FC01848D4E
:1004A000DF01A80FB11DA35ABF4F2C91848D90E09E
:1004B00001968F739927848FA689B7892C93A08979
:1004C000B1898C9180648C93938D848D981306C030
:1004D0000288F389E02D80818F7D80830895EF92DB
:1004E000FF920F931F93CF93DF93EC0181E0888FEE
:1004F0009B8D8C8D981305C0E889F989808185FDD5
:1005000023C0F62E0B8D10E00F5F1F4F0F731127C6
:10051000E02E8C8DE8120BC00FB607FCFACFE889ED
:10052000F989808185FFF5CFCE01B8DFF2CF8B8DC1
:10053000FE01E80FF11DE35AFF4FF0820B8FEA89AD
:10054000FB898081806207C0EE89FF896083E8892A
:10055000F98980818064808381E090E0DF91CF9190
:100560001F910F91FF90EF900895CF93DF93EC01CF
:10057000888D8823C1F0EA89FB89808185FD05C0CB
:10058000A889B9898C9186FD0EC00FB607FCF5CFFE
:10059000808185FFF2CFA889B9898C9185FFEDCF45
:1005A000CE017CDFE8CFDF91CF91089580E090E02D
:1005B000892B19F06ADF811125C080E090E0892B3A
:1005C00041F080E090E0892B21F00E940000811131
:1005D0001CC080E090E0892B41F080E090E0892B06
:1005E00021F00E940000811113C080E090E0892B6F
:1005F000A1F080E090E0892B81F00E940000811141
:100600000AC008950E940000D8CF0E940000E1CFE8
:100610000E940000EACF0C94000008953FB7F894C0
:100620008091330290913402A0913502B09136024C
:1006300026B5A89B05C02F3F19F00196A11DB11D3D
:100640003FBFBA2FA92F982F8827820F911DA11D78
:10065000B11DBC01CD0142E0660F771F881F991FB5
:100660004A95D1F708958F929F92AF92BF92CF9201
:10067000DF92EF92FF926B017C01D0DF4B015C01B6
:10068000C114D104E104F104E9F0C8DFDC01CB01BD
:1006900088199909AA09BB09883E9340A105B105AB
:1006A00078F321E0C21AD108E108F10888EE880E3B
:1006B00083E0981EA11CB11CC114D104E104F10413
:1006C00021F7DECFFF90EF90DF90CF90BF90AF90FB
:1006D0009F908F900895BBD56115710579F0FB014E
:1006E00001900020E9F73197AF01461B570BDC0161
:1006F000ED91FC910280F381E02D199480E090E06F
:1007000008954F925F926F927F92EF92FF920F93B4
:100710001F93CF93DF93CDB7DEB7A1970FB6F894B1
:10072000DEBF0FBECDBF7C01FA01CB0119A2223082
:1007300008F42AE08E010F5D1F4F422E512C612CD0
:10074000712CBF01A30192019FD6F901CA0101508A
:1007500011096A3014F4605D01C0695CD8016C93C2
:10076000232B242B252B69F7B801C701B5DFA196F0
:100770000FB6F894DEBF0FBECDBFDF91CF911F91B2
:100780000F91FF90EF907F906F905F904F90089542
:100790004F925F926F927F928F929F92AF92BF9291
:1007A000CF92DF92EF92FF926B017C01B42E9B01FE
:1007B000AC0149D5882319F060E172E024C026011C
:1007C0003701E89477F82FEF3FEF4FE75FE7C3017A
:1007D000B20139D581110CC02FEF3FEF4FE75FE732
:1007E000C301B20138D518161CF464E172E00BC0E5
:1007F0002FEF3FEF4FE75FE4C701B60120D5181692
:100800008CF468E172E087E492E0FF90EF90DF9073
:10081000CF90BF90AF909F908F907F906F905F90A0
:100820004F905ACF2FEF3FEF4FE75FECC701B60174
:1008300012D587FDE6CF20E030E0A901C701B6015F
:100840000AD587FF11C0E0914702F091480201905C
:10085000F081E02D6DE287E492E019954C01F7FA02
:10086000F094F7F8F09402C0812C912CA12C60E058
:1008700070E080E09FE3AB1439F020E030E040E22C
:1008800051E444D4A394F7CF9B01AC01C701B60156
:10089000D9D32B013C01A7D46B017C01E0D49B018F
:1008A000AC01C301B201CDD32B013C012AE0B70159
:1008B000A60187E492E025DF7C01E80CF91CBB204F
:1008C00039F06CE172E087E492E006DFE80EF91E91
:1008D000DB2CDD2009F120E030E040E251E4C301EF
:1008E000B2011ED52B013C017ED44B01A12CB12CB1
:1008F0002AE0B501A40187E492E003DFE80EF91EC7
:10090000C501B401ACD49B01AC01C301B20199D3C0
:100910002B013C01DA94DDCFC701FF90EF90DF900F
:10092000CF90BF90AF909F908F907F906F905F908F
:100930004F9008951F920F920FB60F9211240BB68D
:100940000F922F933F934F935F936F937F938F9368
:100950009F93AF93BF93EF93FF9387E492E09EDD65
:10096000FF91EF91BF91AF919F918F917F916F9187
:100970005F914F913F912F910F900BBE0F900FBE43
:100980000F901F9018951F920F920FB60F9211247F
:100990000BB60F922F938F939F93EF93FF93E0915A
:1009A0005702F09158028081E0915D02F0915E0261
:1009B00082FD12C09081809160028F5F8F732091C1
:1009C0006102821751F0E0916002F0E0E95BFD4FB7
:1009D000958F8093600201C08081FF91EF919F917C
:1009E0008F912F910F900BBE0F900FBE0F901F9005
:1009F00018951F920F920FB60F9211242F933F93C9
:100A00008F939F93AF93BF93809137029091380259
:100A1000A0913902B0913A023091320223E0230FC3
:100A20002D3720F40196A11DB11D05C026E8230F26
:100A30000296A11DB11D209332028093370290933C
:100A40003802A0933902B0933A0280913302909118
:100A50003402A0913502B09136020196A11DB11D5C
:100A60008093330290933402A0933502B093360200
:100A7000BF91AF919F918F913F912F910F900FBE9A
:100A80000F901F901895E7E4F2E01382128288EE2F
:100A900093E0A0E0B0E084839583A683B78384E0ED
:100AA00092E09183808385EC90E09587848784EC45
:100AB00090E09787868780EC90E0918B808B81EC2B
:100AC00090E0938B828B82EC90E0958B848B86EC0C
:100AD00090E0978B868B118E128E138E148EE4EE1F
:100AE000F2E016821782108611861286138614860B
:100AF000158616861786108A118A128A138A148A16
:100B0000158A0895789484B5826084BD84B5816027
:100B100084BD85B5826085BD85B5816085BD8091C8
:100B20006E00816080936E00109281008091810040
:100B30008260809381008091810081608093810038
:100B4000809180008160809380008091B1008460FA
:100B50008093B1008091B00081608093B00080915B
:100B600091008260809391008091910081608093D8
:100B70009100809190008160809390008091A1000D
:100B800082608093A1008091A10081608093A10088
:100B90008091A00081608093A000809121018260FB
:100BA00080932101809121018160809321018091B6
:100BB000200181608093200180917A00846080937D
:100BC0007A0080917A00826080937A0080917A0026
:100BD000816080937A0080917A00806880937A00A7
:100BE0001092C100109228031092290310922A0338
:100BF00010922B031092E6021092E7021092E80284
:100C00001092E90260ED77E080E090E02CDD87E46F
:100C100092E090932703809326033CDB2FB7F89450
:100C20008091370290913802A0913902B0913A0236
:100C30002FBF8093E6029093E702A093E802B0935F
:100C4000E9026EE172E0809126039091270344DD72
:100C50006AE070E080E090E006DD81E08093FA02D7
:100C600019DB69EA262E61E0362E03E611E0CFEEAD
:100C7000D1E080917B00877F80937B0080E480932C
:100C80007C0080917A00806480937A0080917A0061
:100C900086FDFCCF609178008091790070E0782B20
:100CA00077FF02C06D5F7F4F759567957595679566
:100CB000072E000C880B990BD4D22B013C019B0111
:100CC000AC0160E070E08EE393E4BBD16B017C018A
:100CD00020E030E0A901B3D2181654F42AE037ED31
:100CE00043E25CE3C701B601AAD2181654F031C042
:100CF0002AE037ED43E25CEBC701B601ACD287FFD7
:100D000028C020913B0230913C0240913D0250911D
:100D10003E02C701B60196D120E030E040E05FE33B
:100D2000FFD22AE037ED43E25CE3FAD29B01AC014B
:100D300060913F0270914002809141029091420285
:100D400081D160933F02709340028093410290935F
:100D50004202A7019601C701B60174D14B015C01A3
:100D600020E030E040E05FE360913F02709140029C
:100D70008091410290914202D3D29B01AC01C50106
:100D8000B40160D14B015C0120913B0230913C02E7
:100D900040913D0250913E02C701B60152D12AE076
:100DA00037ED43E25CE3B2D12AE037ED43E25CE3A6
:100DB000B7D29B01AC01C501B40144D14B015C0128
:100DC00020E030E04FE753E43AD218166CF480E0AC
:100DD00090E0AFE7B3E48093430290934402A09382
:100DE0004502B093460219C020E030E0A901C501D8
:100DF000B40131D287FD09C080924302909244022F
:100E0000A0924502B092460208C01092430210928E
:100E100044021092450210924602C0923B02D092C8
:100E20003C02E0923D02F0923E02609143027091DA
:100E300044028091450290914602D0D16B017C0121
:100E40009B01F1016491F8018491882399F090E06D
:100E5000880F991FFC01E45DFE4FA591B491FC0140
:100E6000EA5BFE4F459154918FB7F8949C91692BA2
:100E70006C938FBF2115310511F480E004C02F3F22
:100E8000310519F481E02EDAAAC0FE01849190E0C8
:100E9000FC013197E231F10508F09CC08827EC573E
:100EA000FF4F8F4FC6C084B5806884BDC7BC97C054
:100EB00084B5806284BDC8BC92C080918000806887
:100EC00080938000D0928900C092880088C0809171
:100ED0008000806280938000D0928B00C0928A0054
:100EE0007EC080918000886080938000D0928D00C9
:100EF000C0928C0074C08091B00080688093B00074
:100F0000C092B3006CC08091B00080628093B0004A
:100F1000C092B40064C0809190008068809390007B
:100F2000D0929900C09298005AC08091900080623F
:100F300080939000D0929B00C0929A0050C0809104
:100F40009000886080939000D0929D00C0929C0099
:100F500046C08091A00080688093A0008091A0008E
:100F60008F7B8093A000D092A900C092A80037C0C8
:100F70008091A00080628093A000D092AB00C092CC
:100F8000AA002DC08091A00088608093A000D0921C
:100F9000AD00C092AC0023C0809120018068809396
:100FA0002001D0922901C092280119C0809120010E
:100FB000806280932001D0922B01C0922A010FC041
:100FC00080912001886080932001D0922D01C092F1
:100FD0002C0105C0203831050CF054CF4ECF62E310
:100FE00070E080E090E03FDB41E060E070E08EE3A5
:100FF00093E4CEDB60E372E087E492E06DDB41E0F6
:10100000C301B201C5DB60E372E087E492E064DB18
:101010006091430270914402809145029091460292
:1010200042E0B6DB6DE272E087E492E055DBBEDAC7
:1010300020CEEE0FFF1F881F8BBF0790F691E02D8B
:1010400019945058BB27AA270ED0E4C1D5D130F04F
:10105000DAD120F031F49F3F11F41EF4CAC10EF42E
:10106000E095E7FBC0C1E92FE6D180F3BA1762072C
:1010700073078407950718F071F49EF5FEC10EF40E
:10108000E0950B2EBA2FA02D0B01B90190010C0198
:10109000CA01A0011124FF27591B99F0593F50F4B0
:1010A000503E68F11A16F040A22F232F342F442708
:1010B000585FF3CF469537952795A795F040539500
:1010C000C9F77EF41F16BA0B620B730B840BBAF0D0
:1010D0009150A1F0FF0FBB1F661F771F881FC2F73B
:1010E0000EC0BA0F621F731F841F48F4879577954F
:1010F0006795B795F7959E3F08F0B3CF9395880F06
:1011000008F09927EE0F9795879508950CD082C126
:101110007AD140F071D130F021F45F3F19F063C112
:101120005111ACC166C187D198F39923C9F35523F6
:10113000B1F3951B550BBB27AA27621773078407CA
:1011400038F09F5F5F4F220F331F441FAA1FA9F380
:1011500033D00E2E3AF0E0E830D091505040E69572
:10116000001CCAF729D0FE2F27D0660F771F881FD3
:10117000BB1F261737074807AB07B0E809F0BB0BC2
:10118000802DBF01FF2793585F4F2AF09E3F5105E6
:1011900068F029C173C15F3FECF3983EDCF386959C
:1011A00077956795B795F7959F5FC9F7880F911D5C
:1011B0009695879597F90895E1E0660F771F881F48
:1011C000BB1F621773078407BA0720F0621B730BFB
:1011D000840BBA0BEE1F88F7E095089504D068944D
:1011E000B1114CC108952FD188F09F5790F0B92FBD
:1011F0009927B751A0F0D1F0660F771F881F991F6C
:101200001AF0BA95C9F712C0B13081F036D1B1E009
:10121000089533C1672F782F8827B85F39F0B93F19
:10122000CCF3869577956795B395D9F73EF490956D
:101230008095709561957F4F8F4F9F4F08954CD04B
:1012400008F48FEF089548D0880B990B089581E03A
:1012500090E0F8943BC140D008F481E00895E89410
:1012600009C097FB3EF490958095709561957F4FEE
:101270008F4F9F4F9923A9F0F92F96E9BB2793959C
:10128000F695879577956795B795F111F8CFFAF4AC
:10129000BB0F11F460FF1BC06F5F7F4F8F4F9F4FDD
:1012A00016C0882311F096E911C0772321F09EE83B
:1012B000872F762F05C0662371F096E8862F70E0A1
:1012C00060E02AF09A95660F771F881FDAF7880F7B
:1012D0009695879597F90895990F0008550FAA0BD1
:1012E000E0E8FEEF16161706E807F907C0F0121639
:1012F0001306E407F50798F0621B730B840B950B3C
:1013000039F40A2661F0232B242B252B21F4089590
:101310000A2609F4A140A6958FEF811D811D08952D
:101320000BD078C069D028F06ED018F0952309F062
:101330005AC05FC01124A2C07ED0A0F3959FD1F304
:10134000950F50E0551F629FF001729FBB27F00D73
:10135000B11D639FAA27F00DB11DAA1F649F6627C8
:10136000B00DA11D661F829F2227B00DA11D621F17
:10137000739FB00DA11D621F839FA00D611D221FD1
:10138000749F3327A00D611D231F849F600D211DB5
:10139000822F762F6A2F11249F5750408AF0E1F058
:1013A00088234AF0EE0FFF1FBB1F661F771F881FA1
:1013B00091505040A9F79E3F510570F014C05EC097
:1013C0005F3FECF3983EDCF3869577956795B7958C
:1013D000F795E7959F5FC1F7FE2B880F911D9695B6
:1013E000879597F9089597F99F6780E870E060E026
:1013F00008959FEF80EC089500240A9416161706AE
:1014000018060906089500240A94121613061406F5
:1014100005060895092E0394000C11F4882352F058
:10142000BB0F40F4BF2B11F460FF04C06F5F7F4F10
:101430008F4F9F4F089557FD9058440F551F59F0F7
:101440005F3F71F04795880F97FB991F61F09F3FB1
:1014500079F087950895121613061406551FF2CFDA
:101460004695F1DF08C0161617061806991FF1CF2A
:1014700086957105610508940895E894BB27662751
:101480007727CB0197F90895A1E21A2EAA1BBB1B5F
:10149000FD010DC0AA1FBB1FEE1FFF1FA217B30740
:1014A000E407F50720F0A21BB30BE40BF50B661F56
:1014B000771F881F991F1A9469F76095709580951A
:1014C00090959B01AC01BD01CF010895F894FFCF29
:1014D000000000006F02EC01390217022B02B50276
:1014E0006E616E00696E66006F7666002E00564D66
:1014F0004450565F317C315F564D4450560D0A00C2
:021500002C00BD
:00000001FF
